:020000040800F2
:100000000050002021020008270200082B020008EF
:100010009D020008A1020008E9020008000000009B
:100020000000000000000000000000003103000894
:10003000350300080000000039030008910C000897
:100040004D0300084D0300084D0300084D03000850
:100050004D0300084D0300085D0A00084D03000829
:100060004D0300084D0300084D0300084D03000830
:100070004D0300084D0300084D0300084D03000820
:100080004D0300084D0300084D0300084D03000810
:100090004D0300084D0300084D0300084D03000800
:1000A0004D0300084D0300084D0300084D030008F0
:1000B0004D0300084D0300084D0300084D030008E0
:1000C0004D0300084D0300084D0300084D030008D0
:1000D0004D0300084D0300084D0300084D030008C0
:1000E0004D0300084D0300084D0300080000000008
:1000F0000000000000000000000000000000000000
:1001000000000000000000005FF808F100B583B0B7
:1001100000F0AAF9304B314A1360314A1360314B79
:10012000314A32498B4204D21168196004330432D7
:10013000F7E72A4B1A682E4B9A4200D0FEE7284B6D
:100140001A682C4B9A42F9D1234B2B4A13602B4A45
:1001500013602B4B02E000221A600433294A9342B9
:10016000F9D3254B1B6813B9244B1B6803B1FEE779
:1001700000F086F9694601A800F022F9224C234BD1
:10018000E41AA4100025AC4214DC214C214BE41AE3
:10019000A4100025AC4213DC0099019800F0B2FDD8
:1001A00005461D4C1D4BE41AA410002C0EDC2846FD
:1001B00000F0E2F8154B53F8253098470135E2E797
:1001C000144B53F8253098470135E3E7013C134BB6
:1001D00053F824309847E8E7BABADECA0000002096
:1001E0009400002000000020F4DC000898000020AB
:1001F0007856341232547698980000204C02002031
:1002000098000020500200207803000878030008BE
:1002100078030008780300087803000878030008D2
:1002200008B5FFF773FF00BEFEE71EF0040F0CBF1A
:10023000EFF30880EFF309807146414A10472DE93A
:10024000F04182B004468846124B5E6B9F6B9D6AFC
:100250001B6B13F0020F03D00E4BDB6A002B0CDB81
:100260000D4800F0B5F8CDF800803B4632462946EF
:10027000204600F009F900BEFEE74BF6AB6100F046
:100280007DF90028ECD0034B4FF00042DA6202B057
:10029000BDE8F08100ED00E0D816000800BEFEE7E2
:1002A0001EF0040F0CBFEFF30880EFF309807146D6
:1002B000244A10472DE9F04182B004468846084B95
:1002C0005E6B9F6B9D6A074800F082F8CDF8008056
:1002D0003B4632462946204600F0D6F800BEFEE7EF
:1002E00000ED00E0E81600081EF0040F0CBFEFF36D
:1002F0000880EFF309807146134A10472DE9F04159
:1003000082B004468846084B5E6B9F6B9D6A074827
:1003100000F05EF8CDF800803B4632462946204684
:1003200000F0B2F800BEFEE700ED00E0F4160008B1
:1003300000BEFEE700BEFEE700BEFEE7704700001D
:100340003F020008B5020008FD02000800BEFEE7FB
:10035000F4DC00080000002098000020F4DC000815
:100360000000000000000000980000205002002063
:08037000000000000000000085
:10037800FEE7000008B503460C4A12685AB10B4A5A
:100388001068033323F003030344094A934206D851
:10039800064A136008BD054A06491160EFE700F0F8
:1003A800D9FC0C2303604FF0FF30F3E79C000020DA
:1003B800004C00205002002001230360014B0B6019
:1003C800704700BF040000200FB400B583B004AB31
:1003D80053F8042B01938021064800F0EDFC002817
:1003E80003DD0146034800F037F803B05DF804EB7D
:1003F80004B07047A40000202DE9F04385B00446FE
:100408000F4643560BB10E461EE0042528462146EA
:10041800ABBE0446384605B0BDE8F08314F9011BAD
:1004280004AA1A4402F8101C0133AB42F6D304AAFA
:100438001344002203F8102C4FF00408E946404604
:100448004946ABBE8046761B002EE3D03546102EBB
:1004580028BF10250023E8E708B5FFF7CDFF08BD42
:1004680008B500F0FDF8024A024B9A6008BD00BFCB
:100478000000000800ED00E008B500F019F908BD1B
:10048800F8B504460D4617461E462748FFF79CFF59
:1004980021682648FFF798FF61682548FFF794FF11
:1004A800A1682448FFF790FFE1682348FFF78CFF15
:1004B80021692248FFF788FF61692148FFF784FF17
:1004C800A1692048FFF780FFE1691F48FFF77CFF1B
:1004D8001E48FFF779FF29461D48FFF775FF1D4C99
:1004E800E16A1D48FFF770FF216B1C48FFF76CFF9E
:1004F800E16B1B48FFF768FF15F0800F0AD115F470
:10050800004F0CD11748FFF75FFF06991648FFF711
:100518005BFFF8BD39461548FFF756FFEFE7314650
:100528001348FFF751FFEDE7BC150008CC1500088C
:10053800DC150008EC150008FC1500080C1600086E
:100548001C1600082C1600083C1600084C1600085B
:100558005816000800ED00E0681600087816000834
:1005680088160008B8160008C01600089816000873
:10057800A816000883691A888A4201D000207047AB
:100588000268033A012A03D80233836101207047C5
:100598000020704782B00023019300932C4A13680F
:1005A80043F4803313602A4B1B6803F40033009331
:1005B800019B01330193009B1BB9019BB3F5A06F0D
:1005C800F1D1234B1B6813F4003F06D0012300939D
:1005D800009B012B04D002B0704700230093F7E77B
:1005E8001C4B1A6842F010021A601A6822F00302C3
:1005F8001A601A6842F002021A60A3F580535A681A
:100608005A605A685A605A6842F480625A605A6856
:1006180022F47C125A605A6842F4E8125A601A6846
:1006280042F080721A600A4B1B6813F0007FFAD000
:10063800074B5A6822F003025A605A6842F00202D5
:100648005A60034B5B6803F00C03082BF9D1C2E72F
:10065800001002400020024008B5FFF79BFF08BDCC
:1006680008B5104B1A6842F001021A6059680E4A20
:100678000A405A601A6822F0847222F480321A60A2
:100688001A6822F480221A605A6822F4FE025A601C
:100698004FF41F029A60FFF7DFFF044B4FF0006230
:1006A8009A6008BD001002400000FFF800ED00E06D
:1006B8001F4B5B6803F00C03042B15D0082B17D0D5
:1006C8001BB11C4B1C4A1A6002E01A4B1A4A1A60EA
:1006D800174B5B68C3F30313184AD35CDAB21549A6
:1006E8000B68D3400B607047124B134A1A60EFE750
:1006F8000F4A53685268C3F38343023312F4803FAE
:100708000AD00B4A526812F4003F0BD00C4A02FB85
:1007180003F3084A1360DBE7094A02FB03F3054ABF
:100728001360D5E7044A02FB03F3024A1360CFE7DC
:10073800001002401C00002000127A000C0000206B
:1007480000093D0008B502220821002000F078F8D1
:1007580002220921002000F073F802220A21002059
:1007680000F06EF802220B21002000F069F8022246
:100778000C21002000F064F802220F21002000F074
:100788005FF802220D21104600F05AF802220E21CD
:10079800104600F055F808BD10B5114B1B889BB2E8
:1007A8004CF2BB52934214D8002410E00C4B1B8827
:1007B8009BB20C4AD25C22410B4B03EB440102F082
:1007C8000102497813F8140000F0B8F80134072C36
:1007D800ECDD034A138801339BB2138010BD00BFC0
:1007E80024010020041700082000002010B5114B38
:1007F8001B889BB24CF2BB52934214D8002410E0E1
:100808000C4B1B889BB20C4AD25C22410B4B03EB6E
:10081800440102F00102497813F8140000F08EF840
:100828000134072CECDD034A138801339BB2138093
:1008380010BD00BF2601002004170008200000207A
:1008480010B4012827D018B1022847D010BC70472F
:10085800072912D90F29F9D8A1F10804E4B2314BBC
:100868001968A4000F20A04021EA00011960186847
:1008780002FA04F101431960E8E72B4B1868890074
:100888000F248C4020EA04001860186802FA01F16D
:1008980001431960DAE7072912D90F29D6D8A1F13F
:1008A8000800C0B2214B196880000F24844021EA57
:1008B800040119601C6802FA00F121431960C5E7B8
:1008C8001B4B186889000F248C4020EA040018602C
:1008D800186802FA01F101431960B7E7072912D92C
:1008E8000F29B3D8A1F10803DBB2124801689B00B5
:1008F8000F249C4021EA04010160046802FA03F114
:1009080021430160A2E70C4B186889000F248C4032
:1009180020EA04001860186802FA01F1014319601E
:1009280094E700BF0408014000080140040C01409E
:10093800000C01400410014000100140012815D0AE
:1009480010B1022824D07047012A08D0194803683A
:10095800012202FA01F123EA0101016070471548FA
:10096800036802FA01F1194301607047012A08D0AF
:1009780011480368012202FA01F123EA010101602A
:1009880070470D48036802FA01F119430160704786
:10099800012A08D009480368012202FA01F123EA72
:1009A8000101016070470548036802FA01F1194323
:1009B800016070470C0801400C0C01400C1001400C
:1009C800044B1A6842F001021A60DA6842F0010228
:1009D800DA607047000401400F2938D8DFE801F0D9
:1009E800080B0E1114171A1D202326292C2F323517
:1009F800174B18607047164B58607047144B986037
:100A08007047134BD8607047114B18617047104BF3
:100A1800586170470E4B986170470D4BD86170470D
:100A28000B4B186270470A4B58627047084B986224
:100A38007047074BD8627047054B18637047044BE3
:100A480058637047024B98637047014BD8637047EF
:100A58002801002008B5044B1B689847034A5369CE
:100A680043F00103536108BD280100200004014040
:100A780008B5214B00221A70204B1A6842F20F73F6
:100A88009A4230D91D4B1A6843F2B0639A422AD869
:100A9800002309E0012202FA01F11748027822EA4C
:100AA800010202700133DBB2072B17D8194603F194
:100AB8001100124A52F82020B2F5FA6FEAD30F4A11
:100AC80052F8200040F6FC029042E3D801229A40F6
:100AD800094801781143C9B20170E3E7064B187859
:100AE800074B1B6898470023064A1370034A136094
:100AF800054A137008BD00BF3002002068010020BD
:100B080048020020320200203102002038B50E4B86
:100B18001B7883B10D4C2578EDB200F0ADF80C4B85
:100B280043F825000B490C4800F072F8237801338C
:100B3800DBB2237038BD0749074800F069F8024B5B
:100B480001221A70F6E700BF3202002031020020AD
:100B580068010020790A0008A0860100014B18608E
:100B6800704700BF48020020014B024A1A607047D4
:100B78000CED00E00005FA051F2809D93B2806D826
:100B88002038C0B2012303FA00F0044B1860704704
:100B9800012303FA00F0024B1860704704E100E0FB
:100BA80000E100E0034B4FF480321A600433012265
:100BB8001A607047001002401F291CD801280BD06A
:100BC80010B1022810D070470B480368012202FABE
:100BD80001F119430160704708480368012202FACD
:100BE80001F119430160704705480368012202FAC0
:100BF80001F1194301607047141002401C100240B3
:100C080018100240014B00221A60704710E000E003
:100C180010B40B4B1A6822F001021A6000249C6081
:100C280058601A6842F001021A60064A1160064AC2
:100C380014701A6842F002021A6010BC704700BFB4
:100C480010E000E03402002038020020074B586012
:100C58001A6842F001021A60054A1160054A01212A
:100C680011701A6842F002021A60704710E000E042
:100C78003402002038020020024B58689B68C01AD2
:100C8800704700BF10E000E008B50A4B1B785BB95D
:100C9800094B1A6822F002021A601A6822F001024F
:100CA8001A6000225A609A60044B1B689847024BEE
:100CB8001B6808BD3802002010E000E03402002064
:100CC80008B50C2802D0182808D008BD0749A72065
:100CD800FFF7BCFF064B00221A80F6E705497D2086
:100CE800FFF7B4FF044B00221A80EEE7A1070008C3
:100CF80024010020F50700082601002008B5FFF7A9
:100D080051FF02210846FFF757FF03210220FFF792
:100D180053FF04210220FFF74FFF04220021084659
:100D2800FFF78EFDFFF70EFD00210848FFF754FE80
:100D3800FFF746FEFFF718FF0620FFF71DFFFFF736
:100D480061FF0348FFF70AFFFBE700BF150B000828
:100D5800C90C0008014B1868704700BF300000201C
:100D680030B5141E05469BB0184605DA8B234FF0A4
:100D7800FF302B601BB030BD4FF40273ADF80C3060
:100D88000CBF234604F1FF33029305934FF6FF731C
:100D980000910491ADF80E3002461E9B6946284624
:100DA80000F072F8431CBCBF8B232B60002CE1D0F1
:100DB8000022009B1A70DDE707B5009313460A4628
:100DC800014603480068FFF7CBFF03B05DF804FB5A
:100DD800300000202DE9F0478E6882469E420C467E
:100DE8009046994637D88A8912F4906F31D00223F9
:100DF800256809696F1A656905EB450595FBF3F5E3
:100E080009F101033B449D4238BF1D46530530D5C7
:100E1800294600F035FB064650B90C234FF0FF3049
:100E2800CAF80030A38943F04003A381BDE8F087E6
:100E38003A46216900F0B4FAA38923F4906343F099
:100E48008003A38126613E4426604E466561ED1B02
:100E5800A5604E4500D94E4632464146206800F00E
:100E6800AAFAA36800209B1BA36023681E4426607F
:100E7800DCE72A4600F05EFB06460028E2D121693D
:100E8800504600F0B1FAC8E72DE9F04F9DB0039342
:100E98008B8980461D060C4616460FD50B696BB923
:100EA800402100F0EDFA2060206128B90C23C8F831
:100EB80000304FF0FF30C7E04023636100230993FF
:100EC80020238DF8293030234FF0010B8DF82A307C
:100ED80037463D4615F8013B0BB1252B3ED1B7EB04
:100EE800060A0BD05346324621464046FFF772FFAA
:100EF800013000F0A480099B534409933B78002BF0
:100F080000F09D8000234FF0FF32CDE905230493C4
:100F180007938DF853301A932F46052217F8011BB3
:100F28004F4800F02FFA049BD0B9D90644BF2022BD
:100F38008DF853201A0744BF2B228DF853202A78A6
:100F48002A2A15D02F4600200A25079A394611F873
:100F5800013B303B092B4DD9B8B10FE02F46B8E71C
:100F68003F4A3D46801A0BFA00F018430490D3E735
:100F7800039A111D12680391002A01DB079204E00D
:100F8800524243F00203079204933B782E2B0CD174
:100F98007B782A2B33D1039B02371A1D1B680392D7
:100FA800002BB8BF4FF0FF3305932E4D032239783D
:100FB800284600F0E7F938B14023401B03FA00F057
:100FC800049B0137034304933978062226487E1C84
:100FD8008DF8281000F0D6F9002838D0234B13BB21
:100FE800039B073323F0070308330393099B4B4400
:100FF80009936DE705FB023201200F46A6E700239F
:101008000A25194601370593384610F8012B303A5E
:10101800092A03D9002BC8D00591C6E705FB012191
:1010280001230746F0E703AB00932246104B04A9BF
:101038004046AFF30080B0F1FF3F8146D6D1A38987
:101048005B063FF536AF09981DB0BDE8F08F03ABDE
:1010580000932246064B04A9404600F081F8EAE7CF
:10106800C0DC0008C6DC0008CADC0008000000007C
:10107800DD0D00082DE9F04791461F468A680B6987
:1010880006469342B8BF1346C9F8003091F843208A
:101098000C46DDF8208012B10133C9F8003023680E
:1010A800990642BFD9F800300233C9F800302568E4
:1010B80015F0060507D104F1190AE368D9F80020EC
:1010C8009B1AAB4229DC94F843302268003318BFDE
:1010D800012392062ED404F1430239463046C04714
:1010E800013021D02368E56803F00603042B18BFFC
:1010F8000025D9F800204FF0000908BFAD1AA368F1
:10110800226908BF25EAE5759342C4BF9B1AED180A
:101118001A344D451AD1002008E0012352463946B9
:101128003046C047013003D14FF0FF30BDE8F087AB
:101138000135C2E73020E11881F843005A1C94F8C1
:1011480045102244023382F84310C4E701232246A3
:1011580039463046C0470130E6D009F10109D8E7E1
:101168002DE9F04301F1430C0C46097E85B06E2948
:101178001746064698460C9A00F0B38022D8632991
:1011880036D00AD8002900F0B980582900F08380A9
:1011980004F1420584F8421032E0642901D069293B
:1011A800F6D120681368050603F104012AD51B68E7
:1011B8001160002B03DA2D225B4284F843206F482C
:1011C8000A2239E0732900F09D8008D86F2920D0C1
:1011D8007029DDD1236843F02003236003E07529DB
:1011E80017D07829D4D17823654884F8453055E05C
:1011F800136804F14205191D1B68116084F8423018
:1012080001238CE01B6810F0400F116018BF1BB25F
:10121800CFE713682568181D1060280601D51B68DC
:1012280002E06806FBD51B886F2914BF0A22082232
:101238005248002184F843106568002DA560C0F26B
:101248009580216821F004012160002B3DD1002DFB
:1012580040F08E806546082A0BD12368DB0708D545
:10126800236962689A42DEBF302305F8013C05F124
:10127800FF35ACEB05032361CDF800803B4603AA9C
:1012880021463046FFF7F6FE01304DD14FF0FF30D2
:1012980005B0BDE8F083394884F845101368216823
:1012A8001D1D1B6815600A060BD5CA0744BF41F00F
:1012B800200121601BB9226822F02002226010223E
:1012C800B7E74D0648BF9BB2EFE76546B3FBF2F1BF
:1012D80002FB1133C35C05F8013D0B460029F5D12B
:1012E800B9E713682568181D6169106028061B682E
:1012F80001D5196002E06A06FBD51980002365460E
:101308002361B9E71368191D11601D68626800211F
:10131800284600F037F808B1401B60606368236115
:10132800002384F84330A7E723692A463946304624
:10133800C0470130AAD023689B0713D4E068039BF9
:101348009842B8BF1846A3E701234A4639463046B3
:10135800C04701309AD00135E368039A9B1AAB4223
:10136800F2DCEBE7002504F11909F5E7002BACD115
:10137800037804F1420584F842306CE7D1DC0008B8
:10138800E2DC000810B5C9B202449042034601D11C
:10139800002303E01C7801308C42F6D1184610BDBA
:1013A80010B5431E0A44914200D110BD11F8014BFB
:1013B80003F8014FF7E7884210B501EB020307D89D
:1013C800421E99420AD011F8014B02F8014FF8E782
:1013D8008342F5D98118D21AD34200D110BD13F82F
:1013E800014D01F8014DF7E738B50546002943D00E
:1013F80051F8043C0C1F002BB8BFE41800F0D0F8DB
:101408001E4A1368104633B9636014602846BDE865
:10141800384000F0C6B8A3420BD92168621893423D
:1014280001BF1A685B685218226063600460EDE7C8
:1014380013465A680AB1A242FAD919685818A04244
:101448000BD120680144581882421960DED1106817
:101458005268014419605A60D8E702D90C232B60FE
:10146800D4E7206821188A4201BF11685268091818
:10147800216062605C60C9E738BD00BF3C020020A3
:1014880070B5CD1C25F0030508350C2D38BF0C258B
:10149800002D064601DBA94203D90C233360002046
:1014A80070BD00F07DF8214A1468214691B9204C9E
:1014B80023681BB9304600F063F82060294630469F
:1014C80000F05EF8431C24D10C233046336000F052
:1014D80068F8E4E70B685B1B18D40B2B0FD90B607B
:1014E800CC18CD50304600F05CF804F10B00231DF9
:1014F80020F00700C31AD3D05A42E250D0E74B6815
:101508008C4216BF636013600C46EBE70C464968D3
:10151800CCE7C41C24F00304A04205D0211A3046AD
:1015280000F02EF80130CFD02560DBE73C02002028
:1015380040020020F8B5074614460E4621B9BDE81A
:10154800F8401146FFF79CBF22B9FFF74DFF25462B
:101558002846F8BD00F026F8A0420FD221463846AA
:10156800FFF78EFF05460028F2D031462246FFF7E6
:1015780017FF31463846FFF737FFE9E73546E7E713
:1015880038B50023054C054608462360FEF7F2FEF1
:10159800431C02D1236803B12B6038BD44020020EC
:1015A8007047704751F8043C181F002BBCBF0B58FC
:1015B800C0187047537461636B206672616D653A39
:1015C8000A000000205230203D2020253038580ADB
:1015D80000000000205231203D2020253038580AD4
:1015E80000000000205232203D2020253038580AC3
:1015F80000000000205233203D2020253038580AB2
:101608000000000020523132203D20253038580A91
:1016180000000000204C52203D2020253038580A78
:1016280000000000205043203D2020253038580A73
:101638000000000020505352203D20253038580A21
:10164800000000004653522F4641523A0A0000005B
:101658002043465352203D2020253038580A0000A8
:101668002048465352203D2020253038580A000093
:101678002044465352203D2020253038580A000087
:101688002041465352203D2020253038580A00007A
:10169800204D4D464152203D20253038580A000043
:1016A8002042464152203D2020253038580A00006B
:1016B8004D6973630A000000204C522F4558435F60
:1016C80052455455524E3D20253038580A000000E6
:1016D8005B486172644661756C745D0A00000000C5
:1016E8005B4275734661756C745D0A005B55736186
:1016F80067654661756C745D0A0000007F808182B1
:1017080082828080818382828384858483807E7CB8
:101718007C7C7C7B7C7D7F7F7E7D7B7A7B7D7F81F3
:1017280082838284838381818181818081807F819A
:101738008281818383828382807E7C7C7C7C7C7BAB
:101748007C7D7D7E7E7E7D7E7F808181818183839D
:10175800817F7E7D7C7D7D7D7C7C7D7E7D7F8182A1
:1017680083838382807F7F7F807F7E7F7F8181816B
:101778007F7E7D7E7F828383848484838281807F51
:101788007F7F7E7D7C7D7D7D7F808184858585834F
:10179800817F7F80807E7E7E7F8181807E7D7D7F50
:1017A80080808081818182807E7D7C7C7D7D7C7D46
:1017B80080808081818183848382817D7B7B7C7C26
:1017C8007B7B7C7C7E7F7F7D7C7D7E80807F808133
:1017D80082818181808081828281818181818080F2
:1017E800818384848482807E7E7F7F7E7E7D7E80EE
:1017F80081807E7D7B7C7D7D7F80818383828181EA
:10180800808183817E7E7F808181808182838484C0
:10181800827F7E7E7E7E7D7B7C7C7C7D7E7D7B7BED
:101828007D7F808081828382807F7D7D7E7E7C7BC0
:101838007A7A7C7E7E7E7F8083858584807F807FA8
:101848007F7F7F7F7F7F8181807F7F7F80807F8098
:1018580081838381807E7D80807F7E7F8080818080
:10186800808080828484848281808181807F7E7E62
:101878007F8181807F7E7E7E7E7C7E80807F7F7E72
:101888007D7E7F7F7F7E7E7E7F8080818181828456
:101898008483817F7D7D7C7D7C7B7C7C7C7D7C7B67
:1018A8007B7B7B7B7C7D80808182817F8081828144
:1018B80081818284848383828182828484838180FB
:1018C8007F7E7D7D7C7C7B7D7D7E7D7C7C7D7C7C44
:1018D8007D7F8183858382818283848382828280E3
:1018E800808181818183848483807E7D7D7E7D7CEF
:1018F8007B7A7B7C7D7C7B7C7E7F7F8082828484FC
:10190800827F7E7E7E7E7D7C7B7B7B7C7D7D7D7CFD
:101918007E808181807F7E7E7E7E7D7D7E808282CC
:10192800818081818180808181828383817F7E7FA4
:101938008181807F7F808080807F7E8081818080A0
:101948007F7E808181818181818282817F81818086
:10195800807F7E7E8081807F7C7D7F7F7F7E7E7D95
:101968007D7D7D7D7D7E8082838382818180817F74
:101978007F7D7E7F807F7D7C7D7D7C7B7A7D7C7F8B
:101988008283807E7F7F7F7F7F7E817F8183848249
:10199800828382858481818282817F807F7E7D7F30
:1019A8007E7B7C7D7C7C7F7E7D7D7F80807F7F7F52
:1019B80080808180818282828383828283858584FC
:1019C8008383817F807F7D7D7C7C7D7E7C7A7C7D2E
:1019D8007C7D7C7D7E818282827F7D7E7F807E7F12
:1019E800807F807F7E807F7F808181807F7E7F7FF8
:1019F8007E7E7E7D7E81827F7F81818082828080E3
:101A080080818282828181838382818281808281B6
:101A180082808182808180807E7B7E81807F8081C0
:101A280081827F7F807F7E8081817F7F81828481A8
:101A38007F80807E7E80817D8080807C7C7F7E81AF
:101A4800828180817E7E7F807D7D7B7B7D7D7B7CAE
:101A58007D7C7D7E7F7E7D7F8181807F7F80827F90
:101A68007F7F807E80817F828381838486807D7E64
:101A78007D7F7F7C787D7D7E7E817F7F7D7B7F8083
:101A88007D7B828080838080817F7F7C7E7F7F8456
:101A98008586838488898B888686807E807F7C7D06
:101AA8007F7F7E81827B7D7C7D7E7F7B7C7F7B7858
:101AB800767A7A7B7D7D7C7F82828486858280832C
:101AC8008486888A857F7F827E787B7D81838281F8
:101AD800817F78767873757A7D7C7B7C7E7F7F7E4C
:101AE8007A82807E828487868A8B8A8E8A888A8395
:101AF8007D82837E7C78746E757B7D81817972713D
:101B08007580878484857F807E7B7D82837D7C7ED3
:101B18007D7F8588858B999C9B96857370716D6D8B
:101B28006F7171798688888586817673747A8082E8
:101B380078767D7E7A7E83808585838A8A86817C95
:101B4800705E5F70878F75617386908B8079848EE5
:101B580082797A7D838B85878C847B828E9D9C821B
:101B68008092887C7E7C7F75706F6B7178828B9990
:101B7800A39D908B856F6A6D808F948D8A8B8181F0
:101B88007A888D8F9085807E76625A585E736E66ED
:101B98007B89938E85838795998170696877797B2E
:101BA800857D7767667A7372767E8898876E6E68A9
:101BB800605D5C6174797C80908E8588868787817A
:101BC80087A2A59B999CA39C938C85827F7D838FFC
:101BD8008A8575625A5B5D646173949492828DA460
:101BE800A5907C6B6B72829BA0987E707988909B85
:101BF8009B84959F86857C625B595155515A627EBC
:101C08008E776C636A7466557291978E87939E92ED
:101C18008680839D9E97A7AD9E8B7D6F606B776A4C
:101C2800646F727678737E9494958C706C6B64761E
:101C38008A888476716E6A737071869190928A7CB4
:101C480070706F6770808794A69E9089828A80776B
:101C58007D8A8F8C909DA59E97868898937F8B937D
:101C6800909B8769555C615659666D7A807D83883B
:101C780092988B7F857B6D7575777A7275798A9165
:101C8800837A8B85848989896E6461625B585A6717
:101C98007A887D74757A7F737E8B9399A2A8ACAA93
:101CA800A48C848F8F928C97A2A3957D6A6E72699B
:101CB8006E74737477818485928F86837865666283
:101CC8007486858779676C79747E838884838F812D
:101CD80069656161706667788B8F847C85897E7B96
:101CE8008089867C7E888FA3A38E918D8D94909A0F
:101CF800A0A6A893827B6C63625F575D6470787D51
:101D08008483898B8282816B686F6B7F8173797C16
:101D1800827B7D7B77889A999D94817B7C7870778C
:101D280084908785867B716B687A8683878B939F7F
:101D38009A857D818B86839096908A77767970656F
:101D48006F73767F787C819194949B998E866D5F72
:101D580068676F797B7A7373757883807C878E8CDC
:101D68008D7C656469615C6270768084838A9289FF
:101D780081938F87857A85949C9681827A6D747E0B
:101D8800879593888B836E6C696A6C6869738482A3
:101D98007E7E91979A9B8784857D777B868A837FD1
:101DA8007D8281736A7384969B8F867E78776B6950
:101DB80070747F8B8182816A6F7B7F858780808F3B
:101DC8009D9A9092909297969AA29A989A8F897BC8
:101DD8006C6E6E63645D687C788187817D7B736FD0
:101DE8006F6C656472736E6C65626F70686E8196F5
:101DF8009B9287827C7B79737A7F86878593988D7F
:101E08008B8E919592847C88989D9892877A7E7D16
:101E180082868A8E8B979A7E6365676D6A6474780A
:101E2800757C80818C958F86857B6D6B71798587B4
:101E38007573766F6D6D73879191938379766B6700
:101E4800636670727B827D72686D7680898B82860C
:101E58008E8C95998B899495969C9D9697A09F8B2F
:101E6800898786826B66737376868B888789807E7E
:101E78008A806A676A6D7E7768676E746D6A717C3E
:101E8800818C8E817D797B807770787D818C95912E
:101E9800878887858D8C7C838C8B989A918A867F9E
:101EA800797A7F7E859795847569696B64626262C9
:101EB8006A747C7B7F888A8C979076686670838B3F
:101EC8007D78818479747B7A8798999A93817F85C4
:101ED8007B74727074868D82726E6F778D8E89892D
:101EE800817B868F9293888B9092908185959A9822
:101EF8008F83837F736663686C747E8383857A7B44
:101F080088868073666B7A797271706E68696969A0
:101F180074767B888276797E7D73696467798E9022
:101F28008C877C7C848C9793807C8696A2999087FA
:101F3800828A87818E979CA0928480817C716B6B4A
:101F4800666A73737F868388929491816B6F767EBD
:101F5800837E807F79756F6F7A7E8B95948B85866B
:101F6800837A706B647283807A6D636778838C8DF3
:101F7800837570808B8C8E8889928A817E7C899803
:101F8800998A838280706A6B676E737D898C827E82
:101F9800838F97887971717D78757D79757471757E
:101FA8007A7679868B87838C91887B63586D879046
:101FB800918B8181808793968F7A7486949B948382
:101FC8007F817C7D817D8592958C81837C75796FFD
:101FD8005F5D5F63747E7F7B7E8B8E8E8772707988
:101FE8007982847E78767577766F7989938D888EF5
:101FF8008B8B8A796D777A7D857D756E6C75839408
:10200800977E71757E8C929294959090877D82913F
:102018009F98949488828274696E6A6E7E88877DA0
:102028007E85878F8C7B76746E6F726E716E6C7125
:1020380072706A6E797E868B888A897264656A7A1C
:102048008387867F7E7B7F91968A7F838A9494900C
:102058008F8988858481848E918E8F8E85898C82E4
:102068007A6B5C5D6B7C817980868A8F8D857E77C3
:10207800717A7E817D777A7979716D77888C8A8695
:10208800849292857C77787A797F7B736E666E8787
:1020980092877D72707A7E8991928C8B8C837B80FB
:1020A8008A929C94858482807C736A666F7E828221
:1020B800847F7F8A8E8E8B7D797774717076797C38
:1020C8007E7363676F74828180898C86796E66619E
:1020D8006878828789766E7E8A928D838188908FD0
:1020E8008E90898188867F85888A8F9295928E9234
:1020F8008D83705E6270787E8986878B8D94948DCF
:10210800827D7973767767626C605459616B706C05
:10211800717B89918B88898884898D97998B8C9B11
:10212800ADB0A5978B87827A7B7E6B58534A434222
:102138004551606E7274818F9A9D958F98A0A2AB5D
:10214800B6B8AFAEB8BBC0BBAB97836E6866514933
:10215800463327262C353B424B5B70838B918E860A
:102168008D95A4B3B8B3A7AAB8BBB9B7ADA9A998B8
:10217800908C6E5E5C4D4039373B49545B6571808D
:10218800909D938889868DA2B3B7B3B5BABABCBB04
:10219800B3AB97818275564D4B3D3631343D464A37
:1021A8004D596E848F9E9EA1A09DACB2B1B8B8ABBC
:1021B800AFAFACAB987F6E61616556443A3E495308
:1021C80056575D697371788398ADB1AEA9A2A9BE5F
:1021D800C7BEB1A199A3ACAE9471595851453F39C6
:1021E8003A353539424F66787D868F9DB7BEBAB28B
:1021F800A1A1A4A2A4A39589857261545050464414
:10220800444B5D6E808B90837B8092B1A5A8BFC440
:10221800BEBDB7ADAF9F86776D544E4D4136414F29
:102228006578756F60636C7C80919F9FACB2AFA638
:10223800A5AFB7A99B988B6A52493D3E4C56626937
:10224800584F5C686D6A7792A1A8B6B9B0AFB4B4BC
:10225800B0988A847A6A554D5970707871655D6452
:102268006F68697F9FA4ADC0C3B5B4A9A593756510
:10227800635A4240404D56666B7366566C7B737B5F
:10228800A9A190AAB6A19994968B71696E716358A9
:1022980059606271888D7F78766C7BADB1A6B9BCC8
:1022A800AF948D8E8B82726B665C676856515062F4
:1022B80071839C947C9FB3A4A9AC94706A78745D74
:1022C800697B8577758D907862564D48527095C9AF
:1022D800C0A9B2A686686066585C6D71767F959FC6
:1022E8008977676057566476A7B8BED0CCAC968A13
:1022F800755B59656C79797C797587908065555BD4
:1023080075988B85918A797D877D6769797C807FCF
:102318007D6D655E574A566B91C1AEA4B5A47D69C3
:10232800605A56739EA7A4A6A68B716B5F4F5A6A14
:1023380097B3A7C0CDB79575675349585957596B87
:102348008A9594907771647EAE9D9EB3A3856F78CD
:102358007D7185847572808C7B595948496397C013
:10236800A7B5C19169615F615B6C736B75829D9D57
:102378008576594E568DAB8A9EB4A895919E967DCA
:102388007E7C666C747B7B6A564D5F8FCAB19AB649
:10239800AE7B59625F475C8D8C7F8B91796C685BF3
:1023A8004A4C8EA2859DAF94717D907D69717E7730
:1023B8006C67636E8380818BAFBD9FADB2906F6495
:1023C80072696984999C918F876D5341404B8598B8
:1023D80095C1BBA58B837E6D6E6E727F7978726AAC
:1023E800675C5F6EA39F94B2B388565B747C9199C7
:1023F8009A9789806357393C5287A0849BB4A780F9
:102408007B867A6E849A9776737272766F76A6C890
:10241800ABA9B1955F516A6659778A9F9B9D987859
:1024280061504B6691818EB6AF816675715A727D27
:1024380088766B7C664A4A5075BBACABBBA46D53BF
:102448005E6161809FA3AAABA188704A4178A3917D
:102458009EB1986A66999582939F917C6E6E5B4453
:102468004258A1B1A1BDC39E6355787163798D8A25
:1024780080919D8055496EA7998AA4926E64929F17
:102488008890A19E846E69634B3F48838A72A4BE7C
:1024980097687391857B959D89747A94856465A7FF
:1024A800BF888EA98D58467179687696AEA4929A9F
:1024B800875F547CA0787AA1996D5579876B6B8674
:1024C8008F7E6B7A6F483B77BA958BB3B27E4F6439
:1024D80076565581A2988AA4A97E537EB08075AAA3
:1024E800B17C48638E81849FAE967C89814C25643B
:1024F800A784779AAF8F647F977B6C80927F646F95
:102508007E68599ABB827DA4A16C4D687973809EC0
:10251800AB9375777C54498F976D7388805C5F891E
:102528009D8D859FAC846367614973BEAB9EB4AED5
:102538008D66678380727A86836A5A605F66ABC1EC
:10254800AAB6B28955465F7C77728397896F5F4DCB
:10255800386AAE93869994725868868183939A9460
:10256800785F4D3E59A5AFA5BFBF9C685870777975
:1025780089928877706A6169A8B799A9AB7F4B413E
:10258800687C6E809E9C8479785B488BB58886A52C
:10259800976C5E7E8B7877919A7D60564D4183C1AA
:1025A800A4A0B49D7A6269796F626B837455565E94
:1025B800598DBDA8A8B1916552667B838893AC9B61
:1025C8008174564A92B991919E875B56788480832C
:1025D800A0AE8D776B4A44879F8694A28A6559601E
:1025E8006A76748A926A56544B75B4A29AB8B58DB5
:1025F8005C5864666C7697957A7B6B5384AD8E963F
:10260800ABA1785F6F81949093A58F75694D5A8CB3
:102618008B7E99A485616F847B78809897786E59B2
:10262800468BB99AA2B1A8785A656767667B9B847E
:102638006569567BAE9592AEA075565D5B5368751D
:102648008E978071666EA39B82A2AC94686C898F0A
:102658008F919AA0836C5C5389936F96B69E735939
:102668007A817A8495A0866352446AA39198AA983D
:102678006F4B566D726B6D828C7167566EB09F9BF7
:10268800BAAC81555265657087A6B185635568A453
:102698009582A3AA956B69827772899BA589664DF5
:1026A800578F7A699BB19F736478705B6E9AA98320
:1026B80066596FB6A68AB2C2A15F5175715F647F11
:1026C8009280726568A59B6C8CADA36B455D6A5959
:1026D8005B7AA2916B5F6CA99E6E89B3AA776991A8
:1026E8009B786B7E9D95735E5C90967289ADAE8784
:1026F800657897836A789C9A6B495097AD7D7598F1
:10270800A36D436389714E547E91785A5EA3BB9042
:10271800879CA5895751737B696D909E9066447F0D
:10272800B68F6F89ABAA80627D9D8B68759D996A0B
:1027380042699E8A6B7CA6AF8B615E7881747186D4
:102748008D7C525CA9BFA6918FA5A068507289762E
:102758005864889875547DA49E8F8A8A907D5953B1
:102768006276766C758E88636A8591938887A5AA48
:102778008A7C7E7E7C73788C87626089968F918E46
:1027880095A39786827C81807675746D65748F9029
:10279800796D73828576757C7D716772847F787FA9
:1027A8008C8F80787B7B6C748285909087867B7415
:1027B8007C796C6F7C83898C847B888E91948B8DDB
:1027C8009E8E67657476727C87867368718189804E
:1027D8008188878C928888918F898588837D746C9D
:1027E8006E777781999685838780766C7273747615
:1027F8007270706F788D8E8B848388897A777E80EB
:10280800807F898785827874838882898B8888808D
:1028180079818B846E798E8E84827C7A838F98906E
:10282800837E80756B6E6C5A667C7A71737C7D9240
:10283800948E8C8A8A8782777C7869667A827774A4
:102848006D6B767B839AAEAD9D8F8A837C72647044
:102858007B72655E5B6F91A3A8A7A3969387706848
:102868006C5D617C8481777D92B6B9A9AA9F957EBB
:10287800605D5F5A5160797A7C7F7A859D9D998EDB
:1028880082725D526177795F627979796F8191ABF4
:10289800B6B0AD8F6B6B686876776F6F837B7E9011
:1028A8008983A5B2A4927D717B7F8185856F6E82B5
:1028B8007E87817B7189988063575E78716D868B7E
:1028C8007265829595938B84948C7161506480783D
:1028D8007A837F474F8398ACAB8A89A295837A7BAA
:1028E800818976758B663A6A8F9DAEA494999869AA
:1028F80053676B7E807280875D64A6B7BEB9A68F6A
:102908009A7755655D6A72656777553D80A6ABB95C
:10291800B4908F784B585C647372687C61326EAF88
:10292800B5C9C89BA098666168636B76717F7D4660
:102938006ABAB9C1C7AA9C946952616F7D837A7BD0
:10294800814B50A1A9B0B2948185654151556D86DE
:102958008078915D489BA7AFBFAA8B8965354A628D
:102968006D726F6D8C634697A8A2B9B496A5915AFB
:10297800646A6977756E94734483A59FACAC8F9332
:102988007F495776787B7A7AA1855494C1B2B0A1F1
:102998007C8785535D6965726860826B356FABA70C
:1029A800AFAB7E8A8D4C4C64667C7A6C8B7F3764C7
:1029B800B9B7B7AF8492A26159685F727E78838B8A
:1029C8004A63ADB0BABE978E975A566266818A7BC3
:1029D8007F8B475D9E97A1A8838392534F61576869
:1029E800807379934D60A799A5C193879E5A4D66C8
:1029F8005C5F7A6A71985461AEA4A5C2A29BAD6D62
:102A080060796D60796B6F904E5CA19496BD9C8CDB
:102A18009959476D7269887C789F6673BAADAABF69
:102A2800A08D9F67537162506A5E62894E5BA79D55
:102A380097B1A097A463406971637E766B814A5C05
:102A4800A59E9FB6A290A3714F696C617E78759818
:102A58005E69AD9C98B8AFA3B06E48707A759182E4
:102A68006F8C5A63A2978A99988D9F6041676F5DB2
:102A780071756A825974A39187A5AAA0B475415546
:102A88005E5C6A636B895B5D9BA493A1ACA0B38A0F
:102A9800657B857577767084565C969A899DA9942E
:102AA800A57844566C6D747A708D7A6295B29F9D44
:102AB800AA94A3945B6174685B6E687668538BA272
:102AC8008F94B0A0AE9D5C55676C697F676D644D4F
:102AD80084AA988CA998A6A2695C6B766E8170739B
:102AE8006D568EAE998EAEA2A8A3645770817C9263
:102AF800776C6E5688A99888A597949561586779D8
:102B0800687B6C64674F879B8A81A7A0A0AA6C4BDF
:102B1800536D62796A615F437C9E998DB0ACA7AFB3
:102B28007F6D707B6B8779696E4F81958C7C999EE0
:102B380098AA745C5E6F68857A69705799B1AC938E
:102B48009C9F9FB281706B6F5B716854543D839EEC
:102B5800957F8F9A98B07D6C6D77738979545340BF
:102B6800859F9E8E95A097AB74646A7772828768FA
:102B7800604B90A1998B90A7A1B479686874808DF7
:102B8800896A644B90AA9B85849284A1746870704A
:102B98006E71775C595696A0928780979EB77E6B28
:102BA800665F62667259484A99A59789889A9DB561
:102BB8008C85817A757A856A505AA4A38F7D767F31
:102BC8008DA9827C706267767A634F65AFB9B097DA
:102BD80085899CAC8686806E647175573A53979B3D
:102BE8009680787C94A48E967E6E6F786C57415C44
:102BF8009A9F9F887B75929B7F87857A717E74598F
:102C08004870A3A9A28E8B8CA69A7E857A727A9236
:102C180085574580A49B9B8B7976968A80877B72A3
:102C28006B726D5A558A97908F827985A88C838D9F
:102C38007C6A6568604A4E868F87828480899B8A11
:102C48009A9B877C7D7B70576DA29688817C6B846C
:102C5800947A899284757164564A6E9A9DA4A09359
:102C680084989884949791847C705642678E857E68
:102C78008282748D8E81919189838674534B768C70
:102C8800827D847E798C82808D857D807F6D525B8C
:102C9800859B9685838592A191848889868580788D
:102CA800575F8B938C87847E908E7B8187817C8213
:102CB8007C61466D9B93887D78768E908588858922
:102CC8008A836C5B405B7D7D7B7A777AA296838A68
:102CD80090939394876D4D6F94917E787877988DC3
:102CE8007A7B7C7F85816C5C4B6D8885858988873C
:102CF800ACA8948F8F9797917A624D677C7A76709B
:102D08006E73928C888A8186979D8B6D4E6E8270C9
:102D18006B7771739A958A89808390917D685166E3
:102D28007C717178757BA6AC9E9B837A859B917527
:102D3800596B8A746E7B7D718D9999A58A7C899A65
:102D48007C6458628477697177647E9C939A8C81DD
:102D580086A19771544D72685259716D7B9990A0F4
:102D6800A3938FADA38275647C826E667467678F48
:102D78009191938A829395766C5764736464747A9C
:102D8800759CA29DACA39AA4AC8B785A5775665BC8
:102D9800656653789E939B9696A6B49C8C745772DE
:102DA8006A595A605A7498899693858CA49F836B44
:102DB8005072746064746A74A9A09C9A9293A39DDB
:102DC80083715574806B6060606FA39B979D94912D
:102DD800979E8C7A5A72876D5D5C585C959892992B
:102DE800898B9AA48775545E755C4E575F50819D98
:102DF80097A3A29B9CB29E84646D907A66605F558F
:102E08007C9492A59487889F9177575780766768B6
:102E1800746383A39DACA49792ACA1825E567E7620
:102E28005F53564D719692A09A9297B4AC8E68559E
:102E38007F7F6154615A6A948E968E8285A7AD8C85
:102E4800644A707C6F6266637CACA3A9A6907F928B
:102E580099846F51738B756064616999969FA89284
:102E68008094A4897256728678696962639694918F
:102E7800998E7D8EA48B744B597368595E61588DF9
:102E8800A09FA69C878DAA97835D6A928B6D6569C2
:102E9800527D9591968A7475998D774F5B8F8C7555
:102EA8006D7A6D8FA6A3AEA18782A4947B535182BD
:102EB8008F77626A577E998E938B8583A6A48D5DE2
:102EC80056878A7B6975698394828B837E77999606
:102ED8007E53467E8F836B796D8CAA949A8C847905
:102EE8009295866551828D7B6372707F9D888B8BEE
:102EF8008B83999B805C40718B8A7279727D9C84EC
:102F08008B8686717E8D85694B7E8C836F807A79FE
:102F18009C908D7C746073868E826690A5A68C7F4B
:102F28006D67847D7972736A7D897D644B77959C22
:102F38007E796D6F9EA2A3989178828B845B43847F
:102F4800A29E807E707C968D7D6F6966878C886571
:102F58006093B3B69B88656D84755B617171878476
:102F68007F616CA1AEA385846D6C7B756A6F7B8471
:102F7800ACA2835366989B8C747C758185877C880A
:102F88008A838D7E754E658999958B9096A8987BD6
:102F98005B6A6862707F774F71A3B19D847878818E
:102FA80079685E665C65808983729EBEB4A28D7501
:102FB800667574655C72727C8F8F79496C9FA98B7A
:102FC8006D61687E7E8696A98D869181603B73A32C
:102FD800A59D9287869B988068716C6E766E624715
:102FE80076B3C9C5AD958180634D4F6563687B78BD
:102FF8006B4B89BCBC9D86847B7E6357567C8D9EBB
:10300800A495774C7EA1A08D786C758C766473A09E
:10301800A696887E643C699594807F98A7AE8A6F4F
:103028007286756765615A4684ACA99B99908383BB
:1030380063565E766C665F68706EACC5BCA492859C
:10304800817859526D88746F7A836B5187AFA58BDD
:103058007A6C666E6778A6BFA18F8D7A554082AB71
:10306800A690817F838B7B75828E726466685039E7
:103078007BB7C6BCAD9E968662556F83675E6C6DE6
:103088004D4A9AC7B6917E857B7062657E8E828B2B
:103098009B92725D9AB09B7D6D747A7A626B8EABEF
:1030A800948187865F4481A496756D8EA79E878AD2
:1030B80097936C595B5C47448CAD9F938F958D7B40
:1030C8006465758269565B686F69A7D0C4A08387F9
:1030D80089755769848C6D6474846C5190B3A0832E
:1030E800747675656380A6B69B878282674B7BACD6
:1030F800A5846E778D91848490987860676F553435
:1031080077B7B9A79EA6A6906F69747963595F6768
:10311800553D86C1B2907B7D8B857376818B878484
:103128008492795487B2997564748B83676A93A67D
:103138008D797C88714479B39D70698FAAA890971E
:10314800A7A27B584D584B3778A298877F8C9B8FC6
:103158007374878E765850645D4D8FC6BDA2868A7B
:103168008D7B6775919477626E7F664882AF9D8785
:10317800797E7E78707F9BB0A387767B673E6D995A
:1031880099856F799392838B99A2886C65694E347F
:103198006DA6AD9B97AAAF9D7E717A7D6C625E5BD2
:1031A8004F3E79B1AE947B87908D7C7480978C7EEE
:1031B8008891835A7DA9A073556B89836B6E85A00E
:1031C8009383828775506C9E9D7B6377989D9694B8
:1031D8009EA68C6155595B425292A28E707D9A9D33
:1031E8008175859489645A66775760ABC4AB806FE4
:1031F8007C786E7181978D746C74806C4F83ACA5EC
:103208007F5B6A7C817A8CA8A9907D7D8A6E366204
:10321800A5A58063769092888DA19A80716B70665F
:103228003C58A6B8A98B8E9D9B897177807960568A
:103238006377534DA3C0A67A6D8084766D83979883
:10324800847E8E9A754D7FA5916C596B7A81797EB3
:103258009AA790747A91824760A3AB87637092A310
:10326800978D94946F54566963384B99B39C8378BF
:103278008491907E808F82645F747F61539ECBB20D
:103288007454698991757B96967B727F896C487AAC
:10329800B1A07656638D9D8984A3AA9070666E60EE
:1032A800385DB2B089626C9CB398849AA6926552D4
:1032B8005D633F4FADC9B28773909F7A5E7E8E7F04
:1032C800675E6A75594B9ABEA77C5972928B6B7D63
:1032D800A1B0998087906B31629E9972516C9997D1
:1032E800798AA39F8E7A7883774461A7A88D6977B6
:1032F800A3AC8C767C857E59506778474AA3BD9FDE
:103308006A6B99A07A6C7E8E88665F7B936F5D9CF2
:10331800B2915F51749187717A98AC906E76927180
:103328003F6C9F9E715174968D7E8FA6AB825C63B5
:103338007C704665A0A88E7178999E8C8A99A48A1B
:103348005A5472785055A6C6AB7C688089736A81D6
:1033580096855D62838A604E8EB79C6B59768577B9
:103368007796B4B5927681855F3563A79E76587057
:1033780098968087A5AE8B657589753F59ADB390D2
:103388007385A0917672848C75575E6F755050A1C5
:10339800B69F7C6C858E7E70819189676E8F9E6DDD
:1033A8003C79A7976E647D877D7992A39C786F7E20
:1033B80085663B67A2A182677695A29B9190886BF0
:1033C800566883774258A9BA9B7478979E928F96CD
:1033D8008C75576383825E5FA7C2A37A6272878AFD
:1033E8007C7A86836D657D8768477EB2A075536950
:1033F8008791919DA9A37B6274785F3B63A4A182A6
:10340800676F8C9B979495988464707E775557A5C1
:10341800C8B37E637C8A7F74838771586480825ABC
:103428004A94BFAB7D60798F8A7B77868D7F7C8657
:103438007F613762ACAD7F4B5B8EA2938E9C9A8284
:103448006B767E6D3E55A6B49069779FA88E777887
:103458007F796566707455519FC7AD766490A99859
:103468007D7A87836667829170498CC0A776587584
:1034780092866E71848A766E7D8B744368AEAB7962
:103488004E6799A99A8999A17F5B667F733841A491
:10349800BF905A669DA78F7A899C92707082815CD2
:1034A80052A5CFAE704E75988A6A6982876D667F1D
:1034B8008B683D7CC8B77C547598856E799AA383D0
:1034C8006A7378643A58AAAB7E59679EA3857E8E44
:1034D8009C8A6A718174473F97C6A67C749B9B77C8
:1034E80064728E856165828762478CC7B2816689FE
:1034F800A48D7773818D7A72868D724366B4B28596
:103508005865928C746C829884707E84704850A23E
:10351800B3846270A1AB967F808B816E6D756D519F
:103528004189BEA0786992A79074789794736B8349
:103538008A7C5C83C2A56F587391806667808D7A98
:103548006A717C795768B2B78A6063959A80788A7D
:103558009E87636576754D4191B791676697A48894
:1035680079869A93796F71735C498FCDB6845F7948
:103578008F7B6669878E77677885714B78C8C08C32
:103588006785A2886D6D8CA28F7A7D7A6A4455A969
:10359800BB9166668C866E6D7F9A906E6B817C534C
:1035A8003F85BCA881749DA376657A9490685E7502
:1035B80077604371BCB49176829C8E817A8B9A82B3
:1035C800748693977057A1BC905E54776F62687643
:1035D8009486627B8D88704F7EB4A2765467827D14
:1035E8008381969070696E81795863B6CB9D6E72AF
:1035F8009E95745E788560566F8E9C8676ABD1AC4E
:103608007149586E605F7597936A63758F90627E93
:10361800CAC39464618E87676F8C8E6F5C688C8E6A
:10362800654F8CC5995F42638E837C94B29F6F58B7
:103638006D82765874BDC79E697497866D60718770
:103648006D5C759092766B9EC49E694E759581846B
:103658008CA79E6D667D8A7B5A60A5AE8868648754
:103668007A5A637D8D7E748A948A786884AC996F5F
:103678005A6F8C848290907E605C718884636AA49F
:10368800B59F7C718F795C606D81808799979385F0
:103698005C6D947C66516C948C8D868B9577738C5D
:1036A800959A80659BB58A6964887C585865848436
:1036B800757B868F8863689C906F5E7AA498867AFB
:1036C8008B856A6E7D9DA37D6CA3B68A645D7D6ED5
:1036D80057647B95836E82969D885B7BA88E71610B
:1036E8008AAF90879093937366869888616CA99B3C
:1036F8006A55668465526D919D77637D9593746470
:1037080092A37A5E6E9B926D687796875E73959AA0
:10371800856C93BF9C6E607A75475989A79B6E6EBE
:103728008F8E73596093895F698E9E7F64769A9DA8
:10373800807D98A2917073B2C08E6D7A885A48675E
:1037480094996E66889E88654F85A6726585A68C55
:103758005B6184947E738D9C947D6489BC965F685C
:103768008A6F4357819F83627C999C7F5672A2809F
:10377800677EB6B979758E9B8C6F7B8E8C866269F5
:10378800AA9F71677F7E5258819E8A636B8897943F
:1037980069619E92645C8A9E60587C938865708C8F
:1037A8008A907873B5B98C727C7F565787AA966EC3
:1037B8006D858A8060558E946E638BA16B5E809B4D
:1037C80097768292868A6D77BEB68F85897D4849BD
:1037D80079968765748C8475626F9F8467759DA4DC
:1037E8006460819184728C967D736086C0937A84BC
:1037F80094793B4F859476627E8F7C7070A6AE621A
:103808005E8CB398738BA09874769B8667656EAF51
:10381800AB6C7895A16B456B8B886E75867C755DF6
:103828008DD695555F848C6267858F7B5B7A8A6CB1
:103838005A5098CB99808FA0826367718080798F66
:1038480078675B61B6A8746F7978667A8B818579B9
:10385800829B7E795F86BD9B97A2AE9681927C5BA8
:10386800595E86795C5B65B0A07B8A8E755677A5B4
:1038780094766975816B6F5F94AF75819CA1786A46
:10388800A1A07167657871615575BC98869B997A16
:1038980058779E95968D8F80616265AEAC738291E4
:1038A80086677BAC967D786E6D565E4E79B37B7974
:1038B8009FA27B5C8F90606C788871564A69BA9831
:1038C80069829681608FC39E8E84897D5B574FA1E4
:1038D800AC74788B8C676994897374718071704C3F
:1038E80076B58F8F90957E688FA8A0ADA2957C6DD8
:1038F8004C4CA28670818277688993828F817F7D04
:10390800696B58979A718B92876370927B81928DBD
:103918008A72815D6B9D72737E7E6B689B937F96C6
:103928008F846A72696FBA9E808E8C82678698725D
:103938008892908074805D8DAA787578745B5A89B6
:1039480082899A94956A624A4BA3A188867C7556A7
:1039580075856E8394A0917D846282BE9B8E8888D3
:103968006A547A7273848998856C5E4173A49291C3
:10397800898E6C67837D8282919F9B977E64A0B4B9
:1039880089818282535C817A7C7A8A96817A6E4EAA
:10399800819E8894968B5D62807E7C74898C777713
:1039A8006D588AAF908893864D547C7F8181949717
:1039B8007A7F835A74A49399A3966F6285827B83D6
:1039C80095957A82875862A8A2898B8B66506D700C
:1039D800787E8E9D86858B57377C9B838C9B805405
:1039E8006F81676D8898908D9B7B4C84B9908A9A7B
:1039F8008F5F587D696B7C8C8A8494733C5295895F
:103A08007C9BA5765D83776C7997A4929A9E715A70
:103A18009CA48085998656737C64718DA18B8C9D3E
:103A28006D3265AA8B87A19465688465637D9A89E0
:103A380073948B555BAFA57285916C56867A617CC1
:103A4800969485A39B5B418FBC8883A597646E91F0
:103A58007973909D8980957C4D74BA8D66868C6843
:103A680050807B6982939283887343429CA56F82BE
:103A78009E82466B83697795A6878290785B8CB91E
:103A8800837D978B5D5C7F676B849796817D6640AD
:103A980054A798759B9E755780846D91A5A692969C
:103AA8009A6D528BAB727B9C8D6063836A6C8FA31B
:103AB800928284673D6FAE817D9E9A70577870635D
:103AC8007F918B8592935959A185608A9E7F556D08
:103AD8007E6079A3A588838961478BAE7688AD9C83
:103AE8006D6C95786F8F988C8AA1884F73A56C68D8
:103AF8009B906461886E608FA283758175445AAF0C
:103B08008A698B906E5A87896784A28A869E9E6A84
:103B18005CA693688E906E5B7D815A7FA58E7372CA
:103B28007E5D4498AD6D7D9A815B79A07A7CA69C78
:103B3800878B9D834B83AF6D739D915E5D876E6CA4
:103B4800A0A8817589794066B187789C9763547F6E
:103B5800725C859D7D7DA19D534F97876D939C7465
:103B68005B737E6486AD967E87915E428DA37A9361
:103B7800AD8F677C94706F9792879DAC7A3B799CE8
:103B88006979A4965E5F876C638F977D7990743CA2
:103B980068A06F6D9F9567658F7C6182958990A9F4
:103BA800A0565FA1786C979A6D5C7F7C6384A18135
:103BB8006A7D8C52519E8E6F8F9E78618B9C727934
:103BC8009D958394A8714B939D6F8BA7844E678DA9
:103BD80072779F9A7A7A8B694187A77884A2864FF1
:103BE8005E8C795E7F9081859A84436EA27579A1F7
:103BF800995C548583758AA18A7A88884E5DAA8DD6
:103C08007BA5B482628A94686F9E9F8B94A1614B56
:103C1800918E6C88A6875566846967909177758CB4
:103C2800653B8490657DA297606A90735F809690EB
:103C380091A88A4D7D97687CA29B6A61877F6F8275
:103C48008E85748685546D987279A1A6826A928A47
:103C58006B7C949A8B8D96626B9D7B7B979C7B5B30
:103C68007A807083968F74718662629A87788C9056
:103C780080627A7D616F808980818C6863928170AF
:103C88008B9787657185797D90917F717D74678D3C
:103C98008D7D95A7A3827C8D817D898D9392867475
:103CA8006B848768779C9C6E5A79817A7F81898139
:103CB80071696275775E739B947C7882867D7A7F62
:103CC800979D857C71767D5D65939B836D7B8C87E5
:103CD8007C778B997D6D6D6A72686889A29177830C
:103CE800908879788CA6987C85828581677BA0945A
:103CF8006D6485998B76698B9C7F7B7C7A7B646409
:103D080087856C648295846F6F97AF8C74706177C8
:103D1800786D86988D818F9E9B8876758976525AA4
:103D2800698BA085819FA88D828B8A8B807B9097D9
:103D3800736B756E7B786C798D6D4F58769B998512
:103D48008C9D7F5A585D677B737593927B778FA79D
:103D5800A88D7D98A17356434C85948599AD8B6F3A
:103D6800778D917C6F81967D665E5D92B186738F4B
:103D78009D7A615E65777B8BADB99169556797834D
:103D88005878A596766F859D9887939D845C554C49
:103D98005C7A6169A7C59E726C8E8A6F788F8B6713
:103DA8005B4B5A999A749FBD9E726486734755807F
:103DB800938B88906081B67E7FA7A685697F957C66
:103DC800809BB6AE7E7A54428E733B6B909883800C
:103DD800A090716978826C6D6D2E68AB6C83C1CCD4
:103DE800A26681957A72677D72638D775AA7A375EB
:103DF80091A4A36454726F71697C9E8C97964E50FF
:103E08008981657091805377A1A5A294AF9473813D
:103E180064344A9188709FC6A27D819086747A82A4
:103E28006D6368484297BF8A8DB5A96C5B7B817DBD
:103E380071818B7989894F5396967288A3713C4F0B
:103E480077868F97AEAB948A6038689E827FA9ABDD
:103E580077749BA69383959C775E532C2D7EB09E9A
:103E6800B2C4A56B5A726F6A719387655C5D4E75B3
:103E7800BBA18FAEA967455C6B6D7FAABF977C7BA2
:103E880059437FAD898C9E81474D7D939EA3AC9508
:103E9800655B5A3741859A94B1B48F778C94909129
:103EA8009292695B5F493789D8BCA9B094584D6232
:103EB8006E73788B957B72826255A1BD8A828A77F0
:103EC80056566E84989DA88A6367673C5EA38B6F7D
:103ED8008194756D93ACB19E92895B49705D4A98E7
:103EE800BDA3A5A999767484978D6A665A4D657D98
:103EF8006493D6B0878178534663869374738E76BD
:103F080063796D68B0B3786B716E5F769EB9AA8A73
:103F18008F7C4A4D5E538CB37E698190756591AEF6
:103F2800A179767D44315C688ACAB3A1A69C845C79
:103F38006F96A17F6D74584A7A8891D2BE8B85801E
:103F480067405290A89580948D616A6E5C95AC7FAD
:103F58007B796B556091AD9E83827B5D585E427A1A
:103F6800B4877B919A867592AC916C6D7B67576725
:103F78005E90D3AC92A7A88B697B8F7D5C5D766BD6
:103F880069816F86CE9B5C68756D58608193797284
:103F98008482717B6A67B5A05967918F7382A9B5CE
:103FA800956C66664F5A645398B77A78959E7D7774
:103FB80099AE945D515B555D7363A3DBA1839595C1
:103FC8006D597DA9925E557274708A7B93CFAB6EE2
:103FD8006A7166536EA5B08671848162614F58B26A
:103FE800A46A697F88696EA3B98F67737C554D523F
:103FF80052A0BA8C85919A7C67889A84656978689A
:104008006B7768AAD6A49299A7855567958A5B5E4F
:104018007F7B788A6C87B4826571776B4F659AA0CD
:104028008176868279805F5BA3956A7A90977A7F9A
:10403800A5B385545C685D645C55A8B9888591957D
:104048007E7C98A18054506867737A67A0D09F7966
:104058007D877F6B789693695F7A8C8989758DCA1D
:10406800985D607270697BA1B18D6D6C6C646859E4
:1040780059A2A86B708A97837F9BB2A269525A5E35
:104088005F5F549AC98E7F8F8C76647EA79D6B5430
:104098006A7A7D8A758DD0B78D8D88785D678D9C9D
:1040A80079597186837B5F54A7AF6D616876666ABC
:1040B80096B2996E728679695A4288C58F7E8795BD
:1040C80092748097926550686E68695A86D7B57EF3
:1040D8008298946C658293724F687F787E6E6DB318
:1040E800B8837B7F8A715F81A19E78758A94917F5E
:1040F8006192B8765F6C827B6D8AAEAD6E4D6A76E2
:1041080069614E72BEA37F83868B7C889FA37946A4
:1041180051676D6E6470BFBD77656C7F706F95AACF
:104128009565698E91837C7AB8D7926F7474655E51
:1041380080A0A37C656A706960597DC28F596583C8
:10414800846580AAB58B6361706556516BC4BE8562
:104158008793895D5E8C9C815B5C70797C7B72B097
:10416800D2947D8287654F6D93936C667C8C756362
:104178005385CBA37C7684745F7DA0AF91788691BC
:104188007F6E5759A8AC7B708496746F859D886143
:104198005D757A5C525AAAD19A7D8C9D7F64759020
:1041A80081554A687E78726586BB956B6D84836697
:1041B8007194B092707E998B7B747EBFB57C6A7760
:1041C800836D7192A894645A73786A665184BB8B24
:1041D8006E74888B8086979C71535E6B62605E8A72
:1041E800D6B87A6A7878656B7E8E7F606D8D877FAA
:1041F8007777BDC8826567776C657897A07C676EAE
:104208007166645FA0CF8F6B7788857C85A1B19537
:1042180075767D6E665969B7B5857F83836F6B6FD9
:104228008D8F675664787A736EB2D199807B847467
:10423800596279856D61798C7C6A5774B99C716B08
:1042480079887A7C91A99A7C7A93927F6F6FB0B7BC
:1042580083707C927E68748A836865767D6B615D05
:104268008ABF9C847E9394706F828F6F51597A8332
:1042780085757DBFA577686E81665975908D717259
:10428800999E8D7E6E9CAD8369617E7D74829498C3
:10429800694B65888478618AC2A280718C9A858608
:1042A8009AA5855A6284786B657CBDAE81686B86F9
:1042B800736F7E8D8763597E95877B7BB7C48F6BC1
:1042C800617B6C55678A9A7760768173645481B193
:1042D8009074708A937C8A9FAA996E70918B7E6481
:1042E80070B8B08971758A695E79918A60577F86DE
:1042F800796465AEBB927B768E7965757F816154F2
:10430800819C8F715995BA8C68587E815F6E8EA199
:104318008D6D8DAA93755682B88A64668197797473
:1043280083887450638B86776578BEB4887688A84E
:104338008C7B84979461537D8D806B68AAB37C6174
:1043480062867B5E72888F6B517A99958372A2C858
:10435800976C546B7E626B89A085525E817E694E34
:104368006FBAAE806479A28F869AABA16B648B8C8E
:10437800816E76BFC59066537F7C5F6B83916D5469
:10438800768D83715B98CFA8715B8189605C758E2F
:104398008160728A86786173B0AC76525E886E638B
:1043A800839CAB887387908464508DBA9D76648BA8
:1043B800835B66778A73516C858987727CB6C2A0E5
:1043C800777B9A7F7176858F6E6E87968C6E587D17
:1043D800B39C68587F896E6A779381738F9C9C8C95
:1043E800746291AF7E545E8B8168697B8367647564
:1043F8007C7E78626CB2B98B7794A8887D83847D43
:104408006E7F8E98A0875D72AF9A68536E7E6B71CF
:104418007885897477879B906C557EA98D716B8898
:1044280093857979807B736E71887758496CA597E5
:10443800827F9FADA7978C907E6961768C81685248
:1044480071B0AC7E6D82867666657E7F6B7493AC48
:104458009978628FC8A573627E837772717A7B6D53
:104468006A7E8D795C5283BFAB7F68808276797A69
:10447800969983787C8E786A6478B0A47751555F72
:10448800605E69869C908895A3A38E7E89BCB37E66
:104498004C4E71828F8C979B9084777F7E6E5C5B8D
:1044A800A0AB764E527882838D9AA2937C737280E9
:1044B8008B766691946F484E757F8D868C938F8628
:1044C800727B9DA1866C8BAA865A445D7E9C9E82D7
:1044D80084938870798E8B66365A93956F587D9F32
:1044E800B3A78F9CA88C747C948D754E5A96926E47
:1044F8004F648A8F7B7188998E858D92846A526801
:10450800A5B1996E6D868B918687858187716B635E
:104518005243407D9B91757997A2ABA89D9EA88F29
:104528006B585E6D6C5E8BB4AA876E747B8A7575EA
:1045380089907E636674806F5686BDB58E615F7F95
:10454800938F8C86806951537180624A7BB4B58E93
:1045580066778797A6A69A8B77656A7B7067627875
:10456800B2B0946C65738285766A655B6380898472
:10457800817487BCC2A878656C8597947B697077CD
:104588006E6D7068686297AFA687737A83918D7B2A
:1045980078928B79717784836580AAA8815F5C653E
:1045A8007469616B746C66748F98957190C8C7A5AF
:1045B800745F667C838C91947E747A8B9077556552
:1045C8009EAA9A7862637D8A949687807778827BA0
:1045D8007B706DA0AE9668475060798D85786F774F
:1045E800898A7E80836D95BDA98165545D889A8886
:1045F800797E82827F7A7C8159698D847F6D616E34
:1046080095A79993A39D8D7874818F725B8CA398DD
:104618007D5F5B6A79807D868682889595926F4DED
:1046280081A9AE94736269839799927B6C78807F35
:10463800615A4455838D9380615E7E9BACA69F939F
:104648009B9A7D666B665F92AEB197715969889641
:10465800907D7F9089716D76745379AFB2986C5B59
:104668006383A39E96927C705B5D63695C5789A4A3
:104678009F8F7461788DA5AC9E836B6C767475770B
:104688005E7A96A49E7B5D5A819F97745B566B7584
:104698007C7E8F807CB0BCB2966C5D849F9B806E64
:1046A8007073756C6A70644F77A6B2A38B78828E2C
:1046B80085807C7D797B7E817F81646795A19488E4
:1046C8006E565E60666D6F6D7C7F837D79797CA6A2
:1046D800BABBB8985B627981888A8D8C8880777339
:1046E8006A597CA2B5B294625C75818989807C7DA7
:1046F8007275726C6780A7B699704B506769707253
:104708007A858A85786B6F83A1B5B4977569727E4F
:104718007F787379827F7069646A85989B8B7365EB
:10472800727E7D858B8D9599897C747783929F9C09
:10473800907F6C7274686869737C7C787B868B89DF
:1047480098A29A897C7A7D7F807D868B7E74686F3B
:104758007573686A7470696F737981777D8F9B92BE
:1047680086899899907F7A807E7F82847F828487E9
:104778008B847A757B909380777B868E8178787727
:104788007A7C8689827C828A8B7C6C60626D6B6A9B
:10479800676D79888E87828C92949489847A7C83D9
:1047A80083838074696C7C8277767D8D917E726F4D
:1047B80071787A8894968E8790948E837F88928F6A
:1047C80080717076716E6E71756E6F818986838B5C
:1047D800A0A7957B6F757C7B7F848889837C7A7C96
:1047E8007A7679807C6C5C5E6F78746E76818B8E5D
:1047F8008886909C9A9C9A8D80797982867E767834
:1048080082837F737083908C898A8A858383807F73
:104818007374808284807778878F84756E67656902
:104828006C6F778180818A918B85878D9089847D53
:104838007C85837E73737C7572768284828084849F
:104848007D6C6575878C82858E95908C898C8F8E12
:104858008A8180796F676F787165697C847C7B84D5
:1048680093A8A6948980787B838383817D848583BC
:104878007B756D76857E6E626E6F757974787A82D7
:104888008A8A8A8C8D92949C9B8672707C807C74B8
:104898007680867E828B8880808C979B8976787ECE
:1048A800827F707280807B7A7F857F75778179625D
:1048B8005C68777E7C7B848D8F8E8D898B897D83E8
:1048C80088827C75707574706F747D7E7F838B8F22
:1048D800817976777F81838080888F928F8B8F8C88
:1048E8008C8B85827A6B6D767973686D747E7D7E2C
:1048F8008998A29F928C887D76778287837D7B8535
:104908008678747A7D7B6F6E76746D69737A80842D
:104918007F7F838286919798978E817C7B7872734C
:104928007D817E8082837E7B858E8D8E9388818239
:10493800847F80827E817F7870767F8185857A7397
:1049480066636B6972797E859095867F848988888D
:104958008E8F887E757279776F73777A787880858D
:1049680086827E7D7F847C7277828A8B8E938F8D00
:104978008D8D8C887A7377807D6D696D7273777988
:10498800808B979F9E9B94897F868C877772808681
:104998007C7C7E7B7C7C7B7577746A6E757D7D7292
:1049A800777E7C797F898A969E948B897F73727BC8
:1049B8007B72737C87857D7F878B9492918F8982A8
:1049C8007B84897D767C807B736F707B86857F771F
:1049D800746F676A726E69768C968A85848A918A02
:1049E80081828D8A7F7C7E776B6C74797A7B7C83FD
:1049F8008D9183788188847F7C7C7C7C808B949368
:104A08008D90918F82717778767577746B6B6F70F4
:104A180077858A9298A0998E8A84838381817D770D
:104A28007D7B81847E7E7E8780706D6E6C717A83DB
:104A38007E7172757D808389909A9F918076767F4A
:104A48007A79797673757E878A888794A198867D26
:104A5800818785878B847B707175767B7B7D858963
:104A68007D706D716B6B71787C82857D858D8D878E
:104A7800888989837D7D7774787E6E676F71717A96
:104A88008789878F8D838582827C7D807B80848CDB
:104A9800928F8C8A8A908A7871757E797178736C16
:104AA8006F7B888A878B94A2A28F807F86807C7D8B
:104AB8007B7B74747B817E77757E87807166737C5F
:104AC8007D80807871707883888B8B919090897FB6
:104AD800757276767C80777780818A919798918FA6
:104AE8008986838586817F807B726D7173717B89EE
:104AF80088827A7372747574807E818588817F7FDD
:104B080081928F8F796C7688938975675C59657007
:104B18007E838D8C8E8D898789887F787483828641
:104B28008987939BA09C8B847D7168616364778B74
:104B38008B7F6E6D7F959E9C9092958A7F79797513
:104B48007A8581706E727472726F7E8F8B8A8679A5
:104B58006D6F71736C6A7583817F8B91969DA08E42
:104B68007B70756D61565F7D8595A4A38D85919940
:104B78008E81848A8C8C91837C858879757170701C
:104B88006E6A5F6E7D8584857D7270797A737888A8
:104B98008A838F91878192948C7C7470665F4F545E
:104BA800698794A1A39882818E8B7D737A787C7FA4
:104BB800807C8A9CA29586827B6B5D6164757A8C09
:104BC800998C776870838B85888E8B8D95928F8A68
:104BD80089888B8274685C62666F758099A28E6A18
:104BE800617479716C72716E7B87888D9AA3A39BAF
:104BF8008B7A6E57536C6E77868797A199969790A4
:104C0800908E85777F897F6A76A4A38E70576D838F
:104C18006D6B6A677F8894957D634E69958C857402
:104C28006184A49183919DA1907B74675133346012
:104C38008491ABAA97A69B8D8B70798E75777871C6
:104C4800593E71B3BCC1AA86998A5E4B454D7E9484
:104C5800A09A7B59436596ABA79885A8AB7B6871EA
:104C68007DA297787C6C4C2A4986A9B4B6A3A99CE6
:104C780070585865837E677978542F5EA6C3BEAF97
:104C88009395935D41464F728B95A8926F4D72B084
:104C9800BAB9A486929C6E5A6F80A2A58D87764C6D
:104CA80029437A95A6B2A49D967159606683887344
:104CB800808570434B93C7CBBF957D7D5A3E3E4759
:104CC8006581879E9986654E82BBC4B88B6E806D60
:104CD8004D50668EAA979896815C365A93A6AFABCC
:104CE800969A835B5464799786758B8A764F5BAB0B
:104CF800D5C4AF877B6F42384B67899A9EAA9C833D
:104D0800574481B6AC967C68694D3D5C8BA9AF99D8
:104D180093916E51394E879FAEA97F77715D6F90E1
:104D2800AAB19B8487756454509DD3C6B17B5753F1
:104D380047475E7A9BAD958A817366486FB7B3958E
:104D48007353595C587DB3C3BA9A7E715D58494311
:104D58007EB0A98F655C75737E9EAAA08D77686208
:104D68005C5F6188BAB6977454607B74758698A244
:104D78008E6F76807E63629AA0876A4E5C828E9977
:104D8800AEB8B194665E7578583C76B3AD856D76ED
:104D9800979982888C847250536E736D5480BEB01C
:104DA8007F6261879B6B658596856A69878F826755
:104DB80073AFAF836E74849D888CABAE9E7B606E40
:104DC8007D6B4A3D85B2917B81869A8D6F7C877C0D
:104DD80065525B7479796B96C7B28A706C87824D1D
:104DE800577F87786466879187666AAAAC8A7066F7
:104DF800778F7674919D956E5A809D81514C9EC394
:104E08009B7978859C886579827769526A8E897ED4
:104E18006FA4DCB179707A8A72415C8684786D7F80
:104E28009F9A866476A99A7060667684686999996B
:104E380078696B929573575B9BB08773787D8E7694
:104E4800678C93837A6D829B98816EA9D3A67470C0
:104E5800757962446890867D7383A697765573AE9C
:104E68009D63535B727E6782B6B08674809C825E57
:104E780047599FA6725F717C89716C9095807B728F
:104E8800859380716DA5B78163757B78675D83A015
:104E980092857E859B8E7B5E74A08F605A68798927
:104EA8007D9AC0AE8E807E9681664855979D7868BB
:104EB800798E9E7B78989476645F808B7564639F07
:104EC800A77863797C7E70698E977C7778859681E0
:104ED8006C537FAC916C788B969386A9B694868731
:104EE80082896F5B465B98997B7685909774708D05
:104EF8008C75685F7579716C72ACB69584857C7EAB
:104F080062557E89796F667B8C7C664B88B6947413
:104F18007B8488867A99A584767374826D604C6BDD
:104F2800B2AA827D848A927076978B6E6061797D51
:104F38007E7C74AFC6A2837E757F71577D8C776E39
:104F48006B8098897B557BBE9B6F6B6D7F91747D61
:104F5800968D786B677C7F705557A8BB89717B7F6E
:104F68008B6D6291957E726C829E9E926795D4B18C
:104F780085746C746C4C6A8E846C65769B8F765ED7
:104F880065B1B37B5E5C6E90736A9FAC947A6E82F7
:104F980085675A4989C2936A6E727D745A83A0954F
:104FA800826D749B99826376C1B174606366715D2A
:104FB8006B9FA9937D768E94796B568FBE85565CD0
:104FC800739085679FC5AC83676E8973604D61B5C3
:104FD800A6706C79828B6C7AACAA7F5A628B9A78AD
:104FE80061599EBA7C595F6675726798B19A786BF9
:104FF800768E7B68576EBAA16B728F9B9F8394C223
:10500800B1876C646C71605D4F8CBA876A727A8AFA
:10501800806DA0AF845E596F8B7A6E6A87C6A7745D
:10502800696C707A6278AB9E735958767960636E52
:10503800ABB48270828B8F877FABAC7C5549587735
:10504800736E6493CDA4726F8081837691A67E5827
:105058005865848F86808AC7B776636F78806B6A55
:105068009A9B72565D7A8E837F739ABA886A778123
:105078008A866F90A3794D465D8682706881C7A540
:1050880067697577816C769E8B6C67779CA7938D23
:1050980085BAC1765A6971786B5C94A3755F647B35
:1050A80090837F718ABA8C616B747C827190B190A5
:1050B8006C5C668780706A79B7A4675B646C7D7482
:1050C800769B9B856E6C8A9D918773A3B96B495CAF
:1050D80068707273A4B292726071908E876B78B4A4
:1050E8009161636F8092869EBC9C725D69878178AE
:1050F8007569A6B07157647794897B9F9E816A63AE
:105108007D998D84667FAA744C5D6874877A8EA3B6
:1051180093765B628C927B615AA2A775748492A97C
:105128009E93AA9A7B686473867D6E5279B289636E
:105138006A788E9476899F8A77656A8B8E836D6686
:10514800A8AB796460779680749796755A5471887D
:105158007366598DC5946D7784A1A27D89937D640A
:105168004C537C847C697DBFA46A6B7E8C9B7C7568
:105178009992786458799C98866D9FBE8760637809
:1051880098866B8E99795C506C97937D658CC29CE0
:10519800666B7D959B71758F7A584653848E8065B2
:1051A8007DBE9E606177848C7074938B7070789AE2
:1051B800AEA27A76B8B370586E7F8E7B718B8160A1
:1051C8005F678395897170AFB2745B7080948A76DB
:1051D8008B8E7261607E93846E7BAFA26852677516
:1051E8007B76749091726D7A91A2987689B59C6657
:1051F800485A70726E85A89461637E8B8E7D649226
:10520800B9926C606D7A7D819EB48D61677E857F71
:105218006D63A4BD80575A6F7D7474A2AF7F6474A8
:10522800909181727BBAB77453606A69656E9DA567
:10523800745B6B888D75587EBCA16352778C8281B4
:1052480099BAA97972869187675A9BC08E5B537504
:10525800897C758C9A7E6368858C785767BAC38910
:1052680062667F8169668986675E64747C6E547C39
:10527800BC9D665B6D8C917174A7A37374929886BC
:10528800654F86AF8C707D959F8F7D92AF926A72C5
:1052980079787855529FB8897389948F8782938BD0
:1052A8005E47678D8A6E4862A492666C7E8D92898D
:1052B8008E9D957A76867C6D563F769D7A6886AD0A
:1052C800A27C7289977047547C886D505BA3B27E2C
:1052D80078A2B9BEB1A3B2A5775F7999794D344761
:1052E8008A82555D87A3947687B2A16D5F7EA3A855
:1052F8008156749F783F407798927E8AA5875F5C35
:105308008AAD894C3980AE816077A8C3B28D97B2D7
:105318008E5D54667B764C418CA5724A6299BAB30D
:10532800AEC7BD835D67898A6D443F878D5A475BE9
:10533800809D968BA6A072626E7C725F4A6BB3A446
:1053480063415A7B8F90A3BC9962526B8E948C7286
:1053580092C4985D4E6B7A838C97A78A55597C9135
:105368008B7976ACCEAA776B7A798393BBCB8C4F4B
:10537800536A8081745C7FA97A4C5273818DA6C967
:10538800D09F6E7A847D6A564F80A37248454E50EE
:105398005E6590AE805B6871828C867195C6915F00
:1053A800575B5C667094B1875D6E7A8C9088859F38
:1053B800D6C49F887A7F84697BAC916D6C6167766F
:1053C800807577B3A0604D5A6A7B767EABA2827AED
:1053D80077959F90847FB8C087626A75695F689F78
:1053E800B89F8F7D7A909483607D9F653740495739
:1053F800676C93AD91716D7D9085796976AEA36484
:10540800536262634C61A2AD8D756B879F9E968CCB
:10541800C2CC916C6C737A7275A4AB7B676A7C8B17
:1054280077725F83BA8B58637177766FA5CBB19229
:105438007D798F85776D6B9A8C4D3E52607C789222
:10544800C8BCA2A1A4ACAA94835D7BA77C57554D88
:10545800545F628DA1856759647D6B685B52928B3E
:1054680056515C6C8A8A8DB1AA8C84767C877B7550
:10547800588ED1AF8B87848A9382A2C09A6F5E5B65
:10548800718688766198A467545E759B998BABB0DA
:10549800957F7074857A766A81BFA470606989A3E4
:1054A80093ABC9AB8A6D6A8C9A886745728C553FF5
:1054B80048567D7F6385977D63566884827E686DD4
:1054C800BBA96A59566D857B819D886552547D9E1E
:1054D800907E689AC69C898495AD9C7E9FB49164A1
:1054E8004E63888A816E63A1A16F585A7B9E908211
:1054F800A79E847681A0AD9680656E9E7A4E506C8C
:1055080083846F89B0A7917B83A1A3806C5C8B99FE
:105518005F444D728A7E6C8E9578605D7A947E6168
:105528004B56907749546C7D8A7B89AA9B817184FC
:10553800A6A89B987F9DC08B68758A9A8D79939150
:105548006C535474948465493A73856B70788CA352
:105558009B97ACA38A74768E9786775A6A967A63F5
:105568007185A2AD9AA3B5B0A38E94A08661462E8C
:105578005E8365555A687C78708D90786159708023
:10558800716B575E998F7173869D9C8482978F7912
:105598006F7C847566625C95C29F898B939F9A8E97
:1055A80099987B5E638B9C857A63528A967C818C02
:1055B80097968483978D796B6B7B7D6A5A4776AF14
:1055C8009582888E9A9E909DA896807589968771F7
:1055D800503B748F706A7277786D6C898D775F65D0
:1055E8008079574C4164A68B6A6B7D938D7E8C9D28
:1055F8008D807C8CA197897F76B4CDA89A908D8F69
:1056080085778A937F696B786850524D6DAF9A772A
:1056180075798A989394A4A2896F7D8F7E68574B79
:105628008EB28B71667E968F87A4AF926E5C5C5744
:1056380052523F5CA18F6B66748A8B767992886729
:1056480058768A7968584D92AF87727A9A9880828C
:10565800A6B1956D6775746C6E678DC8AA888499B4
:10566800A1886E7E968666648C99785F5D65AEC407
:105678009C8E8E9086808DA8A27D565C75725C5B30
:10568800577AB4A07E738C9B9090A9B99B706C8359
:105698007B6050494F91A1755F5F70747681978BDD
:1056A8006146556A6D686B6381B08D6F70828A80C0
:1056B8008295997F66729098887C7F8FC0BB988509
:1056C800818C857A839C885E5167766F6465618476
:1056D800AF9788899694888EA09C807A8D9B896CD8
:1056E800686E79AFAB816D7288858AA3AE8C67606E
:1056F8006E6A584A504D6C9481746D787E7C828CA9
:105708008B7A6D777D6D626A6370A99D7B6E7E89E9
:105718007E859699775E5B6B756F77817EB0BD9B52
:10572800898B988B7C7A88817377817367696B5BC7
:1057380089C5A284839598939FAC966F5D69746FB1
:10574800686C5E66ADAB8679838D8185A1A89183EF
:10575800847D7065635B5499A975647585767289D3
:10576800977851506364616770557BB494767C92E6
:10577800877180998A6F677879706F777088CBB5F1
:10578800898590887E86968762566C766A6B716A80
:1057980061A6BE92869598858A9C9E8D828E927C03
:1057A80072736F5D95C29372788A8287A1AB91708C
:1057B8007682655B65674652AA9D696783846F76C2
:1057C800898C7A768072646971675CA3B87F637626
:1057D8008872758F97795B6468575E6D715E9BD729
:1057E800A98690AA9279859A917A7C847167697260
:1057F8006375C4B17F819E99809AB3A1786A7569EF
:105808005F6E7468589ABA806E8595716994AA9883
:10581800898C83656471785765B193676C858370EB
:105828008A977A5C5E68555268736C5595B37D7932
:105838008D926C6C95997C6F7D765C6986876A839E
:10584800CCAF868EA0978091957662686B5E637EFA
:105858007E67589EC18E8CA19D787CA4A185808A84
:105868007B68797F715F77BB96668297846788A625
:105878008D77777B6B697D705C4E7FAE7B7A9B8C76
:1058880067669595747883725D6D8479686198A070
:105898006F8CA28765708568566E715859777972D2
:1058A8007285C5B08DACA5806C88927B7D8272664E
:1058B8007D8E736F7184B49187B3A97F738C806A6E
:1058C800747A726D7A7B6F7F7484B0837F9F8F76D2
:1058D8007FA38C77838781798176727C5266AB8CC3
:1058E8008FA78C6059745E57646D6E6D7C7A757C79
:1058F8005975B183829E8C6B6D8467647D7E7376E7
:10590800979B928A6984C8A785A28F62556A5C5E54
:10591800858074758D938B937B77B7AB85B5B38290
:105928006C8177697F7C7B7F877F7487855D72A1B7
:10593800797AA076576D82707481778186867D80AA
:10594800866853969D6C9995605A73796D92987D87
:10595800747686828586675F86674D918E5A6C82DB
:105968006A6BA09C8DA5A28C829491686AA07F6BBB
:105978009D8B6C7E8B6F7493757B9E9791989671B7
:105988005453837B64A29157719383708A908E9D40
:1059980081889A92776065868C6A93A58189907CC4
:1059A8007BA39469827D615A54575348568B8697D6
:1059B800B3857C908D6E74826C71675B848D7B6916
:1059C8006665869F7EABBE9B9A9D7D67816D668C62
:1059D8007B767A686B6B656D9A7F7EBBA99DBCAF41
:1059E8007D879E818A93787F79716F6E5B74AD88AD
:1059F80090AD837F8F6A588C8D617C7C71857F7AAE
:105A0800756B5F868D6B98956572785B6C908286F6
:105A18009E806E7C7E7B725D4F6F5D4D83817DA124
:105A28008E6288AA8A9AA78089998377715C699A15
:105A38007778BEA17F96896F99956D939F848F8D96
:105A4800797565526E986D779E7A7DA281679E986A
:105A5800829D8A758781686E7C6977896987B19527
:105A68008FAC92889F75657858465C554A5A5C5148
:105A7800809A7EA5B08695A87D728C66607B6873D7
:105A88008A736B7869659C9881B6B18692926273C5
:105A9800916678927173786A7D8E644E828389C02C
:105AA800B7A1B0A6718FA27C968A6176856D6E7A51
:105AB800626991727AA887739B8F6C978E6B9195A8
:105AC8007F80786F8077546E8A596B976E6A9D9144
